{
  "contractName": "Poap",
  "abi": [
    {
      "constant": true,
      "inputs": [
        {
          "name": "interfaceId",
          "type": "bytes4"
        }
      ],
      "name": "supportsInterface",
      "outputs": [
        {
          "name": "",
          "type": "bool"
        }
      ],
      "payable": false,
      "stateMutability": "view",
      "type": "function"
    },
    {
      "constant": false,
      "inputs": [
        {
          "name": "eventId",
          "type": "uint256"
        }
      ],
      "name": "renounceEventMinter",
      "outputs": [],
      "payable": false,
      "stateMutability": "nonpayable",
      "type": "function"
    },
    {
      "constant": true,
      "inputs": [
        {
          "name": "tokenId",
          "type": "uint256"
        }
      ],
      "name": "getApproved",
      "outputs": [
        {
          "name": "",
          "type": "address"
        }
      ],
      "payable": false,
      "stateMutability": "view",
      "type": "function"
    },
    {
      "constant": false,
      "inputs": [
        {
          "name": "eventId",
          "type": "uint256"
        },
        {
          "name": "account",
          "type": "address"
        }
      ],
      "name": "removeEventMinter",
      "outputs": [],
      "payable": false,
      "stateMutability": "nonpayable",
      "type": "function"
    },
    {
      "constant": true,
      "inputs": [],
      "name": "totalSupply",
      "outputs": [
        {
          "name": "",
          "type": "uint256"
        }
      ],
      "payable": false,
      "stateMutability": "view",
      "type": "function"
    },
    {
      "constant": true,
      "inputs": [
        {
          "name": "account",
          "type": "address"
        }
      ],
      "name": "isAdmin",
      "outputs": [
        {
          "name": "",
          "type": "bool"
        }
      ],
      "payable": false,
      "stateMutability": "view",
      "type": "function"
    },
    {
      "constant": true,
      "inputs": [
        {
          "name": "eventId",
          "type": "uint256"
        },
        {
          "name": "account",
          "type": "address"
        }
      ],
      "name": "isEventMinter",
      "outputs": [
        {
          "name": "",
          "type": "bool"
        }
      ],
      "payable": false,
      "stateMutability": "view",
      "type": "function"
    },
    {
      "constant": true,
      "inputs": [
        {
          "name": "owner",
          "type": "address"
        },
        {
          "name": "index",
          "type": "uint256"
        }
      ],
      "name": "tokenOfOwnerByIndex",
      "outputs": [
        {
          "name": "",
          "type": "uint256"
        }
      ],
      "payable": false,
      "stateMutability": "view",
      "type": "function"
    },
    {
      "constant": false,
      "inputs": [],
      "name": "unpause",
      "outputs": [],
      "payable": false,
      "stateMutability": "nonpayable",
      "type": "function"
    },
    {
      "constant": false,
      "inputs": [
        {
          "name": "from",
          "type": "address"
        },
        {
          "name": "to",
          "type": "address"
        },
        {
          "name": "tokenId",
          "type": "uint256"
        }
      ],
      "name": "safeTransferFrom",
      "outputs": [],
      "payable": false,
      "stateMutability": "nonpayable",
      "type": "function"
    },
    {
      "constant": true,
      "inputs": [
        {
          "name": "index",
          "type": "uint256"
        }
      ],
      "name": "tokenByIndex",
      "outputs": [
        {
          "name": "",
          "type": "uint256"
        }
      ],
      "payable": false,
      "stateMutability": "view",
      "type": "function"
    },
    {
      "constant": true,
      "inputs": [],
      "name": "paused",
      "outputs": [
        {
          "name": "",
          "type": "bool"
        }
      ],
      "payable": false,
      "stateMutability": "view",
      "type": "function"
    },
    {
      "constant": true,
      "inputs": [
        {
          "name": "tokenId",
          "type": "uint256"
        }
      ],
      "name": "ownerOf",
      "outputs": [
        {
          "name": "",
          "type": "address"
        }
      ],
      "payable": false,
      "stateMutability": "view",
      "type": "function"
    },
    {
      "constant": false,
      "inputs": [
        {
          "name": "account",
          "type": "address"
        }
      ],
      "name": "addAdmin",
      "outputs": [],
      "payable": false,
      "stateMutability": "nonpayable",
      "type": "function"
    },
    {
      "constant": true,
      "inputs": [
        {
          "name": "owner",
          "type": "address"
        }
      ],
      "name": "balanceOf",
      "outputs": [
        {
          "name": "",
          "type": "uint256"
        }
      ],
      "payable": false,
      "stateMutability": "view",
      "type": "function"
    },
    {
      "constant": false,
      "inputs": [],
      "name": "pause",
      "outputs": [],
      "payable": false,
      "stateMutability": "nonpayable",
      "type": "function"
    },
    {
      "constant": false,
      "inputs": [],
      "name": "renounceAdmin",
      "outputs": [],
      "payable": false,
      "stateMutability": "nonpayable",
      "type": "function"
    },
    {
      "constant": false,
      "inputs": [
        {
          "name": "eventId",
          "type": "uint256"
        },
        {
          "name": "account",
          "type": "address"
        }
      ],
      "name": "addEventMinter",
      "outputs": [],
      "payable": false,
      "stateMutability": "nonpayable",
      "type": "function"
    },
    {
      "constant": false,
      "inputs": [
        {
          "name": "from",
          "type": "address"
        },
        {
          "name": "to",
          "type": "address"
        },
        {
          "name": "tokenId",
          "type": "uint256"
        },
        {
          "name": "_data",
          "type": "bytes"
        }
      ],
      "name": "safeTransferFrom",
      "outputs": [],
      "payable": false,
      "stateMutability": "nonpayable",
      "type": "function"
    },
    {
      "constant": true,
      "inputs": [
        {
          "name": "owner",
          "type": "address"
        },
        {
          "name": "operator",
          "type": "address"
        }
      ],
      "name": "isApprovedForAll",
      "outputs": [
        {
          "name": "",
          "type": "bool"
        }
      ],
      "payable": false,
      "stateMutability": "view",
      "type": "function"
    },
    {
      "anonymous": false,
      "inputs": [
        {
          "indexed": false,
          "name": "eventId",
          "type": "uint256"
        },
        {
          "indexed": false,
          "name": "tokenId",
          "type": "uint256"
        }
      ],
      "name": "EventToken",
      "type": "event"
    },
    {
      "anonymous": false,
      "inputs": [
        {
          "indexed": false,
          "name": "account",
          "type": "address"
        }
      ],
      "name": "Paused",
      "type": "event"
    },
    {
      "anonymous": false,
      "inputs": [
        {
          "indexed": false,
          "name": "account",
          "type": "address"
        }
      ],
      "name": "Unpaused",
      "type": "event"
    },
    {
      "anonymous": false,
      "inputs": [
        {
          "indexed": true,
          "name": "account",
          "type": "address"
        }
      ],
      "name": "AdminAdded",
      "type": "event"
    },
    {
      "anonymous": false,
      "inputs": [
        {
          "indexed": true,
          "name": "account",
          "type": "address"
        }
      ],
      "name": "AdminRemoved",
      "type": "event"
    },
    {
      "anonymous": false,
      "inputs": [
        {
          "indexed": true,
          "name": "eventId",
          "type": "uint256"
        },
        {
          "indexed": true,
          "name": "account",
          "type": "address"
        }
      ],
      "name": "EventMinterAdded",
      "type": "event"
    },
    {
      "anonymous": false,
      "inputs": [
        {
          "indexed": true,
          "name": "eventId",
          "type": "uint256"
        },
        {
          "indexed": true,
          "name": "account",
          "type": "address"
        }
      ],
      "name": "EventMinterRemoved",
      "type": "event"
    },
    {
      "anonymous": false,
      "inputs": [
        {
          "indexed": true,
          "name": "from",
          "type": "address"
        },
        {
          "indexed": true,
          "name": "to",
          "type": "address"
        },
        {
          "indexed": true,
          "name": "tokenId",
          "type": "uint256"
        }
      ],
      "name": "Transfer",
      "type": "event"
    },
    {
      "anonymous": false,
      "inputs": [
        {
          "indexed": true,
          "name": "owner",
          "type": "address"
        },
        {
          "indexed": true,
          "name": "approved",
          "type": "address"
        },
        {
          "indexed": true,
          "name": "tokenId",
          "type": "uint256"
        }
      ],
      "name": "Approval",
      "type": "event"
    },
    {
      "anonymous": false,
      "inputs": [
        {
          "indexed": true,
          "name": "owner",
          "type": "address"
        },
        {
          "indexed": true,
          "name": "operator",
          "type": "address"
        },
        {
          "indexed": false,
          "name": "approved",
          "type": "bool"
        }
      ],
      "name": "ApprovalForAll",
      "type": "event"
    },
    {
      "constant": true,
      "inputs": [],
      "name": "name",
      "outputs": [
        {
          "name": "",
          "type": "string"
        }
      ],
      "payable": false,
      "stateMutability": "view",
      "type": "function"
    },
    {
      "constant": true,
      "inputs": [],
      "name": "symbol",
      "outputs": [
        {
          "name": "",
          "type": "string"
        }
      ],
      "payable": false,
      "stateMutability": "view",
      "type": "function"
    },
    {
      "constant": true,
      "inputs": [
        {
          "name": "tokenId",
          "type": "uint256"
        }
      ],
      "name": "tokenEvent",
      "outputs": [
        {
          "name": "",
          "type": "uint256"
        }
      ],
      "payable": false,
      "stateMutability": "view",
      "type": "function"
    },
    {
      "constant": true,
      "inputs": [
        {
          "name": "owner",
          "type": "address"
        },
        {
          "name": "index",
          "type": "uint256"
        }
      ],
      "name": "tokenDetailsOfOwnerByIndex",
      "outputs": [
        {
          "name": "tokenId",
          "type": "uint256"
        },
        {
          "name": "eventId",
          "type": "uint256"
        }
      ],
      "payable": false,
      "stateMutability": "view",
      "type": "function"
    },
    {
      "constant": true,
      "inputs": [
        {
          "name": "tokenId",
          "type": "uint256"
        }
      ],
      "name": "tokenURI",
      "outputs": [
        {
          "name": "",
          "type": "string"
        }
      ],
      "payable": false,
      "stateMutability": "view",
      "type": "function"
    },
    {
      "constant": false,
      "inputs": [
        {
          "name": "baseURI",
          "type": "string"
        }
      ],
      "name": "setBaseURI",
      "outputs": [],
      "payable": false,
      "stateMutability": "nonpayable",
      "type": "function"
    },
    {
      "constant": false,
      "inputs": [
        {
          "name": "to",
          "type": "address"
        },
        {
          "name": "tokenId",
          "type": "uint256"
        }
      ],
      "name": "approve",
      "outputs": [],
      "payable": false,
      "stateMutability": "nonpayable",
      "type": "function"
    },
    {
      "constant": false,
      "inputs": [
        {
          "name": "to",
          "type": "address"
        },
        {
          "name": "approved",
          "type": "bool"
        }
      ],
      "name": "setApprovalForAll",
      "outputs": [],
      "payable": false,
      "stateMutability": "nonpayable",
      "type": "function"
    },
    {
      "constant": false,
      "inputs": [
        {
          "name": "from",
          "type": "address"
        },
        {
          "name": "to",
          "type": "address"
        },
        {
          "name": "tokenId",
          "type": "uint256"
        }
      ],
      "name": "transferFrom",
      "outputs": [],
      "payable": false,
      "stateMutability": "nonpayable",
      "type": "function"
    },
    {
      "constant": false,
      "inputs": [
        {
          "name": "eventId",
          "type": "uint256"
        },
        {
          "name": "to",
          "type": "address"
        }
      ],
      "name": "mintToken",
      "outputs": [
        {
          "name": "",
          "type": "bool"
        }
      ],
      "payable": false,
      "stateMutability": "nonpayable",
      "type": "function"
    },
    {
      "constant": false,
      "inputs": [
        {
          "name": "eventId",
          "type": "uint256"
        },
        {
          "name": "to",
          "type": "address[]"
        }
      ],
      "name": "mintEventToManyUsers",
      "outputs": [
        {
          "name": "",
          "type": "bool"
        }
      ],
      "payable": false,
      "stateMutability": "nonpayable",
      "type": "function"
    },
    {
      "constant": false,
      "inputs": [
        {
          "name": "eventIds",
          "type": "uint256[]"
        },
        {
          "name": "to",
          "type": "address"
        }
      ],
      "name": "mintUserToManyEvents",
      "outputs": [
        {
          "name": "",
          "type": "bool"
        }
      ],
      "payable": false,
      "stateMutability": "nonpayable",
      "type": "function"
    },
    {
      "constant": false,
      "inputs": [
        {
          "name": "tokenId",
          "type": "uint256"
        }
      ],
      "name": "burn",
      "outputs": [],
      "payable": false,
      "stateMutability": "nonpayable",
      "type": "function"
    },
    {
      "constant": false,
      "inputs": [
        {
          "name": "__name",
          "type": "string"
        },
        {
          "name": "__symbol",
          "type": "string"
        },
        {
          "name": "__baseURI",
          "type": "string"
        },
        {
          "name": "admins",
          "type": "address[]"
        }
      ],
      "name": "initialize",
      "outputs": [],
      "payable": false,
      "stateMutability": "nonpayable",
      "type": "function"
    },
    {
      "constant": false,
      "inputs": [
        {
          "name": "sender",
          "type": "address"
        }
      ],
      "name": "initialize",
      "outputs": [],
      "payable": false,
      "stateMutability": "nonpayable",
      "type": "function"
    },
    {
      "constant": false,
      "inputs": [],
      "name": "initialize",
      "outputs": [],
      "payable": false,
      "stateMutability": "nonpayable",
      "type": "function"
    }
  ],
  "bytecode": "0x608060405234801561001057600080fd5b50613d41806100206000396000f3fe608060405234801561001057600080fd5b506004361061021c5760003560e01c80635c975abb1161012557806395d89b41116100ad578063b88d4fde1161007c578063b88d4fde14610e67578063c4d66de814610f6c578063c87b56dd14610fb0578063e985e9c514611057578063f980f3dc146110d35761021c565b806395d89b4114610ce05780639cd3cad614610d63578063a140ae2314610db1578063a22cb46514610e175761021c565b806370a08231116100f457806370a08231146109ed5780638129fc1c14610a455780638456cb5914610a4f5780638bad0c0a14610a595780638d23209414610a635761021c565b80635c975abb146108b05780636352211e146108d257806367e971ce1461094057806370480275146109a95761021c565b806324d7806c116101a85780633f4ba83a116101775780633f4ba83a1461070d57806342842e0e1461071757806342966c68146107855780634f6ccce7146107b357806355f804b3146107f55761021c565b806324d7806c1461050f578063278d9c411461056b57806328db38b4146106455780632f745c59146106ab5761021c565b8063095ea7b3116101ef578063095ea7b3146103a5578063127a5298146103f3578063166c4b051461043557806318160ddd1461048357806323b872dd146104a15761021c565b806301ffc9a71461022157806302c37ddc1461028657806306fdde03146102b4578063081812fc14610337575b600080fd5b61026c6004803603602081101561023757600080fd5b8101908080357bffffffffffffffffffffffffffffffffffffffffffffffffffffffff191690602001909291905050506111c3565b604051808215151515815260200191505060405180910390f35b6102b26004803603602081101561029c57600080fd5b810190808035906020019092919050505061122b565b005b6102bc611238565b6040518080602001828103825283818151815260200191508051906020019080838360005b838110156102fc5780820151818401526020810190506102e1565b50505050905090810190601f1680156103295780820380516001836020036101000a031916815260200191505b509250505060405180910390f35b6103636004803603602081101561034d57600080fd5b81019080803590602001909291905050506112db565b604051808273ffffffffffffffffffffffffffffffffffffffff1673ffffffffffffffffffffffffffffffffffffffff16815260200191505060405180910390f35b6103f1600480360360408110156103bb57600080fd5b81019080803573ffffffffffffffffffffffffffffffffffffffff1690602001909291908035906020019092919050505061132a565b005b61041f6004803603602081101561040957600080fd5b8101908080359060200190929190505050611353565b6040518082815260200191505060405180910390f35b6104816004803603604081101561044b57600080fd5b8101908080359060200190929190803573ffffffffffffffffffffffffffffffffffffffff169060200190929190505050611371565b005b61048b611391565b6040518082815260200191505060405180910390f35b61050d600480360360608110156104b757600080fd5b81019080803573ffffffffffffffffffffffffffffffffffffffff169060200190929190803573ffffffffffffffffffffffffffffffffffffffff1690602001909291908035906020019092919050505061139e565b005b6105516004803603602081101561052557600080fd5b81019080803573ffffffffffffffffffffffffffffffffffffffff1690602001909291905050506113c9565b604051808215151515815260200191505060405180910390f35b61062b6004803603604081101561058157600080fd5b8101908080359060200190929190803590602001906401000000008111156105a857600080fd5b8201836020820111156105ba57600080fd5b803590602001918460208302840111640100000000831117156105dc57600080fd5b919080806020026020016040519081016040528093929190818152602001838360200280828437600081840152601f19601f8201169050808301925050505050505091929192905050506113e6565b604051808215151515815260200191505060405180910390f35b6106916004803603604081101561065b57600080fd5b8101908080359060200190929190803573ffffffffffffffffffffffffffffffffffffffff169060200190929190505050611476565b604051808215151515815260200191505060405180910390f35b6106f7600480360360408110156106c157600080fd5b81019080803573ffffffffffffffffffffffffffffffffffffffff169060200190929190803590602001909291905050506114b5565b6040518082815260200191505060405180910390f35b610715611528565b005b6107836004803603606081101561072d57600080fd5b81019080803573ffffffffffffffffffffffffffffffffffffffff169060200190929190803573ffffffffffffffffffffffffffffffffffffffff169060200190929190803590602001909291905050506115d5565b005b6107b16004803603602081101561079b57600080fd5b81019080803590602001909291905050506115f5565b005b6107df600480360360208110156107c957600080fd5b8101908080359060200190929190505050611624565b6040518082815260200191505060405180910390f35b6108ae6004803603602081101561080b57600080fd5b810190808035906020019064010000000081111561082857600080fd5b82018360208201111561083a57600080fd5b8035906020019184600183028401116401000000008311171561085c57600080fd5b91908080601f016020809104026020016040519081016040528093929190818152602001838380828437600081840152601f19601f820116905080830192505050505050509192919290505050611658565b005b6108b86116a0565b604051808215151515815260200191505060405180910390f35b6108fe600480360360208110156108e857600080fd5b81019080803590602001909291905050506116b8565b604051808273ffffffffffffffffffffffffffffffffffffffff1673ffffffffffffffffffffffffffffffffffffffff16815260200191505060405180910390f35b61098c6004803603604081101561095657600080fd5b81019080803573ffffffffffffffffffffffffffffffffffffffff16906020019092919080359060200190929190505050611734565b604051808381526020018281526020019250505060405180910390f35b6109eb600480360360208110156109bf57600080fd5b81019080803573ffffffffffffffffffffffffffffffffffffffff169060200190929190505050611755565b005b610a2f60048036036020811015610a0357600080fd5b81019080803573ffffffffffffffffffffffffffffffffffffffff169060200190929190505050611773565b6040518082815260200191505060405180910390f35b610a4d6117f5565b005b610a57611901565b005b610a616119af565b005b610cde60048036036080811015610a7957600080fd5b8101908080359060200190640100000000811115610a9657600080fd5b820183602082011115610aa857600080fd5b80359060200191846001830284011164010000000083111715610aca57600080fd5b91908080601f016020809104026020016040519081016040528093929190818152602001838380828437600081840152601f19601f82011690508083019250505050505050919291929080359060200190640100000000811115610b2d57600080fd5b820183602082011115610b3f57600080fd5b80359060200191846001830284011164010000000083111715610b6157600080fd5b91908080601f016020809104026020016040519081016040528093929190818152602001838380828437600081840152601f19601f82011690508083019250505050505050919291929080359060200190640100000000811115610bc457600080fd5b820183602082011115610bd657600080fd5b80359060200191846001830284011164010000000083111715610bf857600080fd5b91908080601f016020809104026020016040519081016040528093929190818152602001838380828437600081840152601f19601f82011690508083019250505050505050919291929080359060200190640100000000811115610c5b57600080fd5b820183602082011115610c6d57600080fd5b80359060200191846020830284011164010000000083111715610c8f57600080fd5b919080806020026020016040519081016040528093929190818152602001838360200280828437600081840152601f19601f8201169050808301925050505050505091929192905050506119ba565b005b610ce8611b5e565b6040518080602001828103825283818151815260200191508051906020019080838360005b83811015610d28578082015181840152602081019050610d0d565b50505050905090810190601f168015610d555780820380516001836020036101000a031916815260200191505b509250505060405180910390f35b610daf60048036036040811015610d7957600080fd5b8101908080359060200190929190803573ffffffffffffffffffffffffffffffffffffffff169060200190929190505050611c01565b005b610dfd60048036036040811015610dc757600080fd5b8101908080359060200190929190803573ffffffffffffffffffffffffffffffffffffffff169060200190929190505050611c24565b604051808215151515815260200191505060405180910390f35b610e6560048036036040811015610e2d57600080fd5b81019080803573ffffffffffffffffffffffffffffffffffffffff169060200190929190803515159060200190929190505050611c7e565b005b610f6a60048036036080811015610e7d57600080fd5b81019080803573ffffffffffffffffffffffffffffffffffffffff169060200190929190803573ffffffffffffffffffffffffffffffffffffffff1690602001909291908035906020019092919080359060200190640100000000811115610ee457600080fd5b820183602082011115610ef657600080fd5b80359060200191846001830284011164010000000083111715610f1857600080fd5b91908080601f016020809104026020016040519081016040528093929190818152602001838380828437600081840152601f19601f820116905080830192505050505050509192919290505050611ca7565b005b610fae60048036036020811015610f8257600080fd5b81019080803573ffffffffffffffffffffffffffffffffffffffff169060200190929190505050611ccd565b005b610fdc60048036036020811015610fc657600080fd5b8101908080359060200190929190505050611dd5565b6040518080602001828103825283818151815260200191508051906020019080838360005b8381101561101c578082015181840152602081019050611001565b50505050905090810190601f1680156110495780820380516001836020036101000a031916815260200191505b509250505060405180910390f35b6110b96004803603604081101561106d57600080fd5b81019080803573ffffffffffffffffffffffffffffffffffffffff169060200190929190803573ffffffffffffffffffffffffffffffffffffffff169060200190929190505050611ef4565b604051808215151515815260200191505060405180910390f35b6111a9600480360360408110156110e957600080fd5b810190808035906020019064010000000081111561110657600080fd5b82018360208201111561111857600080fd5b8035906020019184602083028401116401000000008311171561113a57600080fd5b919080806020026020016040519081016040528093929190818152602001838360200280828437600081840152601f19601f820116905080830192505050505050509192919290803573ffffffffffffffffffffffffffffffffffffffff169060200190929190505050611f88565b604051808215151515815260200191505060405180910390f35b600060336000837bffffffffffffffffffffffffffffffffffffffffffffffffffffffff19167bffffffffffffffffffffffffffffffffffffffffffffffffffffffff1916815260200190815260200160002060009054906101000a900460ff169050919050565b6112358133612015565b50565b60606101398054600181600116156101000203166002900480601f0160208091040260200160405190810160405280929190818152602001828054600181600116156101000203166002900480156112d15780601f106112a6576101008083540402835291602001916112d1565b820191906000526020600020905b8154815290600101906020018083116112b457829003601f168201915b5050505050905090565b60006112e682612082565b6112ef57600080fd5b6067600083815260200190815260200160002060009054906101000a900473ffffffffffffffffffffffffffffffffffffffff169050919050565b61010660009054906101000a900460ff161561134557600080fd5b61134f82826120f4565b5050565b600061013d6000838152602001908152602001600020549050919050565b61137a336113c9565b61138357600080fd5b61138d8282612015565b5050565b6000609e80549050905090565b61010660009054906101000a900460ff16156113b957600080fd5b6113c4838383612235565b505050565b60006113df8260d261225890919063ffffffff16565b9050919050565b600061010660009054906101000a900460ff161561140357600080fd5b8261140e8133611476565b61141757600080fd5b60008090505b83518110156114585761144c8582600161013c54010186848151811061143f57fe5b60200260200101516122ea565b5080600101905061141d565b50825161013c60008282540192505081905550600191505092915050565b6000611481826113c9565b806114ad57506114ac8260d3600086815260200190815260200160002061225890919063ffffffff16565b5b905092915050565b60006114c083611773565b82106114cb57600080fd5b609c60008473ffffffffffffffffffffffffffffffffffffffff1673ffffffffffffffffffffffffffffffffffffffff168152602001908152602001600020828154811061151557fe5b9060005260206000200154905092915050565b611531336113c9565b61153a57600080fd5b61010660009054906101000a900460ff1661155457600080fd5b600061010660006101000a81548160ff0219169083151502179055507f5db9ee0a495bf2e6ff9c91a7834c1ba4fdd244a5e8aa4e537bd38aeae4b073aa33604051808273ffffffffffffffffffffffffffffffffffffffff1673ffffffffffffffffffffffffffffffffffffffff16815260200191505060405180910390a1565b6115f083838360405180602001604052806000815250611ca7565b505050565b6115ff3382612359565b8061160f575061160e336113c9565b5b61161857600080fd5b611621816123ee565b50565b600061162e611391565b821061163957600080fd5b609e828154811061164657fe5b90600052602060002001549050919050565b611661336113c9565b61166a57600080fd5b61010660009054906101000a900460ff161561168557600080fd5b8061013b908051906020019061169c929190613c16565b5050565b600061010660009054906101000a900460ff16905090565b6000806066600084815260200190815260200160002060009054906101000a900473ffffffffffffffffffffffffffffffffffffffff169050600073ffffffffffffffffffffffffffffffffffffffff168173ffffffffffffffffffffffffffffffffffffffff16141561172b57600080fd5b80915050919050565b60008061174184846114b5565b915061174c82611353565b90509250929050565b61175e336113c9565b61176757600080fd5b61177081612403565b50565b60008073ffffffffffffffffffffffffffffffffffffffff168273ffffffffffffffffffffffffffffffffffffffff1614156117ae57600080fd5b606860008373ffffffffffffffffffffffffffffffffffffffff1673ffffffffffffffffffffffffffffffffffffffff168152602001908152602001600020549050919050565b600060019054906101000a900460ff1680611814575061181361245d565b5b8061182b57506000809054906101000a900460ff16155b611880576040517f08c379a000000000000000000000000000000000000000000000000000000000815260040180806020018281038252602e815260200180613ce8602e913960400191505060405180910390fd5b60008060019054906101000a900460ff1690506001600060016101000a81548160ff02191690831515021790555060016000806101000a81548160ff021916908315150217905550600061010660006101000a81548160ff02191690831515021790555080600060016101000a81548160ff02191690831515021790555050565b61190a336113c9565b61191357600080fd5b61010660009054906101000a900460ff161561192e57600080fd5b600161010660006101000a81548160ff0219169083151502179055507f62e78cea01bee320cd4e420270b5ea74000d11b0c9f74754ebdbfc544b05a25833604051808273ffffffffffffffffffffffffffffffffffffffff1673ffffffffffffffffffffffffffffffffffffffff16815260200191505060405180910390a1565b6119b83361246e565b565b600060019054906101000a900460ff16806119d957506119d861245d565b5b806119f057506000809054906101000a900460ff16155b611a45576040517f08c379a000000000000000000000000000000000000000000000000000000000815260040180806020018281038252602e815260200180613ce8602e913960400191505060405180910390fd5b60008060019054906101000a900460ff1690506001600060016101000a81548160ff02191690831515021790555060016000806101000a81548160ff021916908315150217905550611a956124c8565b611a9d6125d0565b611aa633611ccd565b611aae6117f5565b60008090505b8251811015611ae457611ad9838281518110611acc57fe5b6020026020010151612403565b806001019050611ab4565b50846101399080519060200190611afc929190613c16565b508361013a9080519060200190611b14929190613c16565b508261013b9080519060200190611b2c929190613c16565b50611b3d635b5e139f60e01b6126e1565b80600060016101000a81548160ff0219169083151502179055505050505050565b606061013a8054600181600116156101000203166002900480601f016020809104026020016040519081016040528092919081815260200182805460018160011615610100020316600290048015611bf75780601f10611bcc57610100808354040283529160200191611bf7565b820191906000526020600020905b815481529060010190602001808311611bda57829003601f168201915b5050505050905090565b81611c0c8133611476565b611c1557600080fd5b611c1f8383612781565b505050565b600061010660009054906101000a900460ff1615611c4157600080fd5b82611c4c8133611476565b611c5557600080fd5b600161013c60008282540192505081905550611c758461013c54856122ea565b91505092915050565b61010660009054906101000a900460ff1615611c9957600080fd5b611ca382826127ee565b5050565b611cb284848461139e565b611cbe84848484612928565b611cc757600080fd5b50505050565b600060019054906101000a900460ff1680611cec5750611ceb61245d565b5b80611d0357506000809054906101000a900460ff16155b611d58576040517f08c379a000000000000000000000000000000000000000000000000000000000815260040180806020018281038252602e815260200180613ce8602e913960400191505060405180910390fd5b60008060019054906101000a900460ff1690506001600060016101000a81548160ff02191690831515021790555060016000806101000a81548160ff021916908315150217905550611da9826113c9565b611db757611db682612403565b5b80600060016101000a81548160ff0219169083151502179055505050565b6060600061013d6000848152602001908152602001600020549050611eec61013b8054600181600116156101000203166002900480601f016020809104026020016040519081016040528092919081815260200182805460018160011615610100020316600290048015611e8a5780601f10611e5f57610100808354040283529160200191611e8a565b820191906000526020600020905b815481529060010190602001808311611e6d57829003601f168201915b5050505050611e9883612b11565b6040518060400160405280600181526020017f2f00000000000000000000000000000000000000000000000000000000000000815250611ed787612b11565b60405180602001604052806000815250612c3e565b915050919050565b6000606960008473ffffffffffffffffffffffffffffffffffffffff1673ffffffffffffffffffffffffffffffffffffffff16815260200190815260200160002060008373ffffffffffffffffffffffffffffffffffffffff1673ffffffffffffffffffffffffffffffffffffffff16815260200190815260200160002060009054906101000a900460ff16905092915050565b600061010660009054906101000a900460ff1615611fa557600080fd5b611fae336113c9565b611fb757600080fd5b60008090505b8351811015611ff857611fec848281518110611fd557fe5b602002602001015182600161013c540101856122ea565b50806001019050611fbd565b50825161013c600082825401925050819055506001905092915050565b61203a8160d36000858152602001908152602001600020612f0090919063ffffffff16565b8073ffffffffffffffffffffffffffffffffffffffff16827fb6882c4d609d560f6d57e78e73dd96027f0d9852739b0b922537a6dd3c8e944c60405160405180910390a35050565b6000806066600084815260200190815260200160002060009054906101000a900473ffffffffffffffffffffffffffffffffffffffff169050600073ffffffffffffffffffffffffffffffffffffffff168173ffffffffffffffffffffffffffffffffffffffff161415915050919050565b60006120ff826116b8565b90508073ffffffffffffffffffffffffffffffffffffffff168373ffffffffffffffffffffffffffffffffffffffff16141561213a57600080fd5b8073ffffffffffffffffffffffffffffffffffffffff163373ffffffffffffffffffffffffffffffffffffffff16148061217a57506121798133611ef4565b5b61218357600080fd5b826067600084815260200190815260200160002060006101000a81548173ffffffffffffffffffffffffffffffffffffffff021916908373ffffffffffffffffffffffffffffffffffffffff160217905550818373ffffffffffffffffffffffffffffffffffffffff168273ffffffffffffffffffffffffffffffffffffffff167f8c5be1e5ebec7d5bd14f71427d1e84f3dd0314c0f7b2291e5b200ac8c7c3b92560405160405180910390a4505050565b61223f3382612359565b61224857600080fd5b612253838383612fab565b505050565b60008073ffffffffffffffffffffffffffffffffffffffff168273ffffffffffffffffffffffffffffffffffffffff16141561229357600080fd5b8260000160008373ffffffffffffffffffffffffffffffffffffffff1673ffffffffffffffffffffffffffffffffffffffff16815260200190815260200160002060009054906101000a900460ff16905092915050565b60006122f68284612fcf565b8361013d6000858152602001908152602001600020819055507f4b3711cd7ece062b0828c1b6e08d814a72d4c003383a016c833cbb1b45956e348484604051808381526020018281526020019250505060405180910390a1600190509392505050565b600080612365836116b8565b90508073ffffffffffffffffffffffffffffffffffffffff168473ffffffffffffffffffffffffffffffffffffffff1614806123d457508373ffffffffffffffffffffffffffffffffffffffff166123bc846112db565b73ffffffffffffffffffffffffffffffffffffffff16145b806123e557506123e48185611ef4565b5b91505092915050565b6124006123fa826116b8565b82612ff0565b50565b6124178160d261301690919063ffffffff16565b8073ffffffffffffffffffffffffffffffffffffffff167f44d6d25963f097ad14f29f06854a01f575648a1ef82f30e562ccd3889717e33960405160405180910390a250565b600080303b90506000811491505090565b6124828160d2612f0090919063ffffffff16565b8073ffffffffffffffffffffffffffffffffffffffff167fa3b62bc36326052d97ea62d63c3d60308ed4c3ea8ac079dd8499f1e9c4f80c0f60405160405180910390a250565b600060019054906101000a900460ff16806124e757506124e661245d565b5b806124fe57506000809054906101000a900460ff16155b612553576040517f08c379a000000000000000000000000000000000000000000000000000000000815260040180806020018281038252602e815260200180613ce8602e913960400191505060405180910390fd5b60008060019054906101000a900460ff1690506001600060016101000a81548160ff02191690831515021790555060016000806101000a81548160ff0219169083151502179055506125a36130c2565b6125b36380ac58cd60e01b6126e1565b80600060016101000a81548160ff02191690831515021790555050565b600060019054906101000a900460ff16806125ef57506125ee61245d565b5b8061260657506000809054906101000a900460ff16155b61265b576040517f08c379a000000000000000000000000000000000000000000000000000000000815260040180806020018281038252602e815260200180613ce8602e913960400191505060405180910390fd5b60008060019054906101000a900460ff1690506001600060016101000a81548160ff02191690831515021790555060016000806101000a81548160ff0219169083151502179055506126ab6131c2565b6126b457600080fd5b6126c463780e9d6360e01b6126e1565b80600060016101000a81548160ff02191690831515021790555050565b63ffffffff60e01b817bffffffffffffffffffffffffffffffffffffffffffffffffffffffff1916141561271457600080fd5b600160336000837bffffffffffffffffffffffffffffffffffffffffffffffffffffffff19167bffffffffffffffffffffffffffffffffffffffffffffffffffffffff1916815260200190815260200160002060006101000a81548160ff02191690831515021790555050565b6127a68160d3600085815260200190815260200160002061301690919063ffffffff16565b8073ffffffffffffffffffffffffffffffffffffffff16827fe1bd660d9f7c60e6fb12dd6479fdde12d21fc96385dc7b9b022c0b2f319e739160405160405180910390a35050565b3373ffffffffffffffffffffffffffffffffffffffff168273ffffffffffffffffffffffffffffffffffffffff16141561282757600080fd5b80606960003373ffffffffffffffffffffffffffffffffffffffff1673ffffffffffffffffffffffffffffffffffffffff16815260200190815260200160002060008473ffffffffffffffffffffffffffffffffffffffff1673ffffffffffffffffffffffffffffffffffffffff16815260200190815260200160002060006101000a81548160ff0219169083151502179055508173ffffffffffffffffffffffffffffffffffffffff163373ffffffffffffffffffffffffffffffffffffffff167f17307eab39ab6107e8899845ad3d59bd9653f200f220920489ca2b5937696c3183604051808215151515815260200191505060405180910390a35050565b60006129498473ffffffffffffffffffffffffffffffffffffffff166131d9565b6129565760019050612b09565b60008473ffffffffffffffffffffffffffffffffffffffff1663150b7a02338887876040518563ffffffff1660e01b8152600401808573ffffffffffffffffffffffffffffffffffffffff1673ffffffffffffffffffffffffffffffffffffffff1681526020018473ffffffffffffffffffffffffffffffffffffffff1673ffffffffffffffffffffffffffffffffffffffff16815260200183815260200180602001828103825283818151815260200191508051906020019080838360005b83811015612a31578082015181840152602081019050612a16565b50505050905090810190601f168015612a5e5780820380516001836020036101000a031916815260200191505b5095505050505050602060405180830381600087803b158015612a8057600080fd5b505af1158015612a94573d6000803e3d6000fd5b505050506040513d6020811015612aaa57600080fd5b8101908080519060200190929190505050905063150b7a0260e01b7bffffffffffffffffffffffffffffffffffffffffffffffffffffffff1916817bffffffffffffffffffffffffffffffffffffffffffffffffffffffff1916149150505b949350505050565b60606000821415612b59576040518060400160405280600181526020017f30000000000000000000000000000000000000000000000000000000000000008152509050612c39565b600082905060005b60008214612b83578080600101915050600a8281612b7b57fe5b049150612b61565b6060816040519080825280601f01601f191660200182016040528015612bb85781602001600182028038833980820191505090505b50905060006001830390505b60008614612c3157600a8681612bd657fe5b0660300160f81b82828060019003935081518110612bf057fe5b60200101907effffffffffffffffffffffffffffffffffffffffffffffffffffffffffffff1916908160001a905350600a8681612c2957fe5b049550612bc4565b819450505050505b919050565b6060808690506060869050606086905060608690506060869050606081518351855187518951010101016040519080825280601f01601f191660200182016040528015612c9a5781602001600182028038833980820191505090505b509050606081905060008090506000809050600090505b8851811015612d1f57888181518110612cc657fe5b602001015160f81c60f81b838380600101945081518110612ce357fe5b60200101907effffffffffffffffffffffffffffffffffffffffffffffffffffffffffffff1916908160001a9053508080600101915050612cb1565b600090505b8751811015612d9257878181518110612d3957fe5b602001015160f81c60f81b838380600101945081518110612d5657fe5b60200101907effffffffffffffffffffffffffffffffffffffffffffffffffffffffffffff1916908160001a9053508080600101915050612d24565b600090505b8651811015612e0557868181518110612dac57fe5b602001015160f81c60f81b838380600101945081518110612dc957fe5b60200101907effffffffffffffffffffffffffffffffffffffffffffffffffffffffffffff1916908160001a9053508080600101915050612d97565b600090505b8551811015612e7857858181518110612e1f57fe5b602001015160f81c60f81b838380600101945081518110612e3c57fe5b60200101907effffffffffffffffffffffffffffffffffffffffffffffffffffffffffffff1916908160001a9053508080600101915050612e0a565b600090505b8451811015612eeb57848181518110612e9257fe5b602001015160f81c60f81b838380600101945081518110612eaf57fe5b60200101907effffffffffffffffffffffffffffffffffffffffffffffffffffffffffffff1916908160001a9053508080600101915050612e7d565b82995050505050505050505095945050505050565b600073ffffffffffffffffffffffffffffffffffffffff168173ffffffffffffffffffffffffffffffffffffffff161415612f3a57600080fd5b612f448282612258565b612f4d57600080fd5b60008260000160008373ffffffffffffffffffffffffffffffffffffffff1673ffffffffffffffffffffffffffffffffffffffff16815260200190815260200160002060006101000a81548160ff0219169083151502179055505050565b612fb68383836131ec565b612fc0838261344d565b612fca82826135eb565b505050565b612fd982826136b2565b612fe382826135eb565b612fec81613847565b5050565b612ffa8282613893565b61013d6000828152602001908152602001600020600090555050565b600073ffffffffffffffffffffffffffffffffffffffff168173ffffffffffffffffffffffffffffffffffffffff16141561305057600080fd5b61305a8282612258565b1561306457600080fd5b60018260000160008373ffffffffffffffffffffffffffffffffffffffff1673ffffffffffffffffffffffffffffffffffffffff16815260200190815260200160002060006101000a81548160ff0219169083151502179055505050565b600060019054906101000a900460ff16806130e157506130e061245d565b5b806130f857506000809054906101000a900460ff16155b61314d576040517f08c379a000000000000000000000000000000000000000000000000000000000815260040180806020018281038252602e815260200180613ce8602e913960400191505060405180910390fd5b60008060019054906101000a900460ff1690506001600060016101000a81548160ff02191690831515021790555060016000806101000a81548160ff0219169083151502179055506131a56301ffc9a760e01b6126e1565b80600060016101000a81548160ff02191690831515021790555050565b60006131d46380ac58cd60e01b6111c3565b905090565b600080823b905060008111915050919050565b8273ffffffffffffffffffffffffffffffffffffffff1661320c826116b8565b73ffffffffffffffffffffffffffffffffffffffff161461322c57600080fd5b600073ffffffffffffffffffffffffffffffffffffffff168273ffffffffffffffffffffffffffffffffffffffff16141561326657600080fd5b61326f816138cd565b6132c26001606860008673ffffffffffffffffffffffffffffffffffffffff1673ffffffffffffffffffffffffffffffffffffffff1681526020019081526020016000205461398b90919063ffffffff16565b606860008573ffffffffffffffffffffffffffffffffffffffff1673ffffffffffffffffffffffffffffffffffffffff168152602001908152602001600020819055506133586001606860008573ffffffffffffffffffffffffffffffffffffffff1673ffffffffffffffffffffffffffffffffffffffff168152602001908152602001600020546139ab90919063ffffffff16565b606860008473ffffffffffffffffffffffffffffffffffffffff1673ffffffffffffffffffffffffffffffffffffffff16815260200190815260200160002081905550816066600083815260200190815260200160002060006101000a81548173ffffffffffffffffffffffffffffffffffffffff021916908373ffffffffffffffffffffffffffffffffffffffff160217905550808273ffffffffffffffffffffffffffffffffffffffff168473ffffffffffffffffffffffffffffffffffffffff167fddf252ad1be2c89b69c2b068fc378daa952ba7f163c4a11628f55a4df523b3ef60405160405180910390a4505050565b60006134a56001609c60008673ffffffffffffffffffffffffffffffffffffffff1673ffffffffffffffffffffffffffffffffffffffff1681526020019081526020016000208054905061398b90919063ffffffff16565b90506000609d6000848152602001908152602001600020549050818114613592576000609c60008673ffffffffffffffffffffffffffffffffffffffff1673ffffffffffffffffffffffffffffffffffffffff168152602001908152602001600020838154811061351257fe5b9060005260206000200154905080609c60008773ffffffffffffffffffffffffffffffffffffffff1673ffffffffffffffffffffffffffffffffffffffff168152602001908152602001600020838154811061356a57fe5b906000526020600020018190555081609d600083815260200190815260200160002081905550505b609c60008573ffffffffffffffffffffffffffffffffffffffff1673ffffffffffffffffffffffffffffffffffffffff1681526020019081526020016000208054809190600190036135e49190613c96565b5050505050565b609c60008373ffffffffffffffffffffffffffffffffffffffff1673ffffffffffffffffffffffffffffffffffffffff16815260200190815260200160002080549050609d600083815260200190815260200160002081905550609c60008373ffffffffffffffffffffffffffffffffffffffff1673ffffffffffffffffffffffffffffffffffffffff1681526020019081526020016000208190806001815401808255809150509060018203906000526020600020016000909192909190915055505050565b600073ffffffffffffffffffffffffffffffffffffffff168273ffffffffffffffffffffffffffffffffffffffff1614156136ec57600080fd5b6136f581612082565b156136ff57600080fd5b816066600083815260200190815260200160002060006101000a81548173ffffffffffffffffffffffffffffffffffffffff021916908373ffffffffffffffffffffffffffffffffffffffff1602179055506137a46001606860008573ffffffffffffffffffffffffffffffffffffffff1673ffffffffffffffffffffffffffffffffffffffff168152602001908152602001600020546139ab90919063ffffffff16565b606860008473ffffffffffffffffffffffffffffffffffffffff1673ffffffffffffffffffffffffffffffffffffffff16815260200190815260200160002081905550808273ffffffffffffffffffffffffffffffffffffffff16600073ffffffffffffffffffffffffffffffffffffffff167fddf252ad1be2c89b69c2b068fc378daa952ba7f163c4a11628f55a4df523b3ef60405160405180910390a45050565b609e80549050609f600083815260200190815260200160002081905550609e81908060018154018082558091505090600182039060005260206000200160009091929091909150555050565b61389d82826139ca565b6138a7828261344d565b6000609d6000838152602001908152602001600020819055506138c981613b5c565b5050565b600073ffffffffffffffffffffffffffffffffffffffff166067600083815260200190815260200160002060009054906101000a900473ffffffffffffffffffffffffffffffffffffffff1673ffffffffffffffffffffffffffffffffffffffff16146139885760006067600083815260200190815260200160002060006101000a81548173ffffffffffffffffffffffffffffffffffffffff021916908373ffffffffffffffffffffffffffffffffffffffff1602179055505b50565b60008282111561399a57600080fd5b600082840390508091505092915050565b6000808284019050838110156139c057600080fd5b8091505092915050565b8173ffffffffffffffffffffffffffffffffffffffff166139ea826116b8565b73ffffffffffffffffffffffffffffffffffffffff1614613a0a57600080fd5b613a13816138cd565b613a666001606860008573ffffffffffffffffffffffffffffffffffffffff1673ffffffffffffffffffffffffffffffffffffffff1681526020019081526020016000205461398b90919063ffffffff16565b606860008473ffffffffffffffffffffffffffffffffffffffff1673ffffffffffffffffffffffffffffffffffffffff1681526020019081526020016000208190555060006066600083815260200190815260200160002060006101000a81548173ffffffffffffffffffffffffffffffffffffffff021916908373ffffffffffffffffffffffffffffffffffffffff16021790555080600073ffffffffffffffffffffffffffffffffffffffff168373ffffffffffffffffffffffffffffffffffffffff167fddf252ad1be2c89b69c2b068fc378daa952ba7f163c4a11628f55a4df523b3ef60405160405180910390a45050565b6000613b776001609e8054905061398b90919063ffffffff16565b90506000609f60008481526020019081526020016000205490506000609e8381548110613ba057fe5b9060005260206000200154905080609e8381548110613bbb57fe5b906000526020600020018190555081609f600083815260200190815260200160002081905550609e805480919060019003613bf69190613c96565b506000609f60008681526020019081526020016000208190555050505050565b828054600181600116156101000203166002900490600052602060002090601f016020900481019282601f10613c5757805160ff1916838001178555613c85565b82800160010185558215613c85579182015b82811115613c84578251825591602001919060010190613c69565b5b509050613c929190613cc2565b5090565b815481835581811115613cbd57818360005260206000209182019101613cbc9190613cc2565b5b505050565b613ce491905b80821115613ce0576000816000905550600101613cc8565b5090565b9056fe436f6e747261637420696e7374616e63652068617320616c7265616479206265656e20696e697469616c697a6564a165627a7a723058202021ddd6590cde8e8e6d15e506aa0ffc09a087bd44f6098cf6ebaa8961fcd0260029",
  "source": "pragma solidity ^0.5.0;\n\nimport \"zos-lib/contracts/Initializable.sol\";\nimport \"openzeppelin-eth/contracts/token/ERC721/ERC721.sol\";\nimport \"openzeppelin-eth/contracts/token/ERC721/ERC721Enumerable.sol\";\nimport \"openzeppelin-eth/contracts/token/ERC721/IERC721Metadata.sol\";\nimport \"./PoapRoles.sol\";\nimport \"./PoapPausable.sol\";\n\n\n    // Desired Features\n    // - Add Event\n    // - Add Event Organizer\n    // - Mint token for an event\n    // - Batch Mint\n    // - Burn Tokens (only admin?)\n    // - Pause contract (only admin)\n    // - ERC721 full interface (base, metadata, enumerable)\n\ncontract Poap is Initializable, ERC721, ERC721Enumerable, PoapRoles, PoapPausable {\n    event EventToken(uint256 eventId, uint256 tokenId);\n\n    // Token name\n    string private _name;\n\n    // Token symbol\n    string private _symbol;\n\n    // Base token URI\n    string private _baseURI;\n\n    // Last Used id (used to generate new ids)\n    uint256 private lastId;\n\n    // EventId for each token\n    mapping(uint256 => uint256) private _tokenEvent;\n\n\n    bytes4 private constant _INTERFACE_ID_ERC721_METADATA = 0x5b5e139f;\n    \n    /**\n     * @dev Gets the token name\n     * @return string representing the token name\n     */\n    function name() external view returns (string memory) {\n        return _name;\n    }\n\n    /**\n     * @dev Gets the token symbol\n     * @return string representing the token symbol\n     */\n    function symbol() external view returns (string memory) {\n        return _symbol;\n    }\n\n    function tokenEvent(uint256 tokenId) public view returns (uint256) {\n        return _tokenEvent[tokenId];\n    }\n\n    /**\n     * @dev Gets the token ID at a given index of the tokens list of the requested owner\n     * @param owner address owning the tokens list to be accessed\n     * @param index uint256 representing the index to be accessed of the requested tokens list\n     * @return uint256 token ID at the given index of the tokens list owned by the requested address\n     */\n    function tokenDetailsOfOwnerByIndex(address owner, uint256 index) public view returns (uint256 tokenId, uint256 eventId) {\n        tokenId = tokenOfOwnerByIndex(owner, index);\n        eventId = tokenEvent(tokenId);\n    }\n\n    /**\n     * @dev Gets the token uri\n     * @return string representing the token uri\n     */\n    function tokenURI(uint256 tokenId) external view returns (string memory) {\n        uint eventId = _tokenEvent[tokenId];\n        return _strConcat(_baseURI, _uint2str(eventId), \"/\", _uint2str(tokenId), \"\");\n    }\n\n    function setBaseURI(string memory baseURI) public onlyAdmin whenNotPaused {\n        _baseURI = baseURI;\n    }\n\n    function approve(address to, uint256 tokenId) public whenNotPaused {\n        super.approve(to, tokenId);\n    }\n\n    function setApprovalForAll(address to, bool approved) public whenNotPaused {\n        super.setApprovalForAll(to, approved);\n    }\n\n    function transferFrom(address from, address to, uint256 tokenId) public whenNotPaused {\n        super.transferFrom(from, to, tokenId);\n    }\n\n    /**\n     * @dev Function to mint tokens\n     * @param eventId EventId for the new token\n     * @param to The address that will receive the minted tokens.\n     * @return A boolean that indicates if the operation was successful.\n     */\n    function mintToken(uint256 eventId, address to) \n        public whenNotPaused onlyEventMinter(eventId) returns (bool) \n    {\n        lastId += 1;\n        return _mintToken(eventId, lastId, to);\n    }\n\n    /**\n     * @dev Function to mint tokens\n     * @param eventId EventId for the new token\n     * @param to The address that will receive the minted tokens.\n     * @return A boolean that indicates if the operation was successful.\n     */\n    function mintEventToManyUsers(uint256 eventId, address[] memory to) \n        public whenNotPaused onlyEventMinter(eventId) returns (bool) \n    {\n        for (uint256 i = 0; i < to.length; ++i) {\n            _mintToken(eventId, lastId + 1 + i, to[i]);\n        }        \n        lastId += to.length;\n        return true;\n    }\n\n    /**\n     * @dev Function to mint tokens\n     * @param eventIds EventIds to assing to user\n     * @param to The address that will receive the minted tokens.\n     * @return A boolean that indicates if the operation was successful.\n     */\n    function mintUserToManyEvents(uint256[] memory eventIds, address to) \n        public whenNotPaused onlyAdmin() returns (bool) \n    {\n        for (uint256 i = 0; i < eventIds.length; ++i) {\n            _mintToken(eventIds[i], lastId + 1 + i, to);\n        }        \n        lastId += eventIds.length;\n        return true;\n    }\n\n    /**\n     * @dev Burns a specific ERC721 token.\n     * @param tokenId uint256 id of the ERC721 token to be burned.\n     */\n    function burn(uint256 tokenId) public {\n        require(_isApprovedOrOwner(msg.sender, tokenId) || isAdmin(msg.sender));\n        _burn(tokenId);\n    }    \n\n    function initialize(string memory __name, string memory __symbol, string memory __baseURI, address[] memory admins) \n        public initializer \n    {\n        ERC721.initialize();\n        ERC721Enumerable.initialize();\n        PoapRoles.initialize(msg.sender); \n        PoapPausable.initialize();\n\n        // Add the requested admins\n        for (uint256 i = 0; i < admins.length; ++i) {\n            _addAdmin(admins[i]);\n        }\n\n        _name = __name;\n        _symbol = __symbol;\n        _baseURI = __baseURI;\n        \n        // register the supported interfaces to conform to ERC721 via ERC165\n        _registerInterface(_INTERFACE_ID_ERC721_METADATA);\n    }\n\n    /**\n     * @dev Internal function to burn a specific token\n     * Reverts if the token does not exist\n     * \n     * @param owner owner of the token to burn\n     * @param tokenId uint256 ID of the token being burned by the msg.sender\n     */\n    function _burn(address owner, uint256 tokenId) internal {\n        super._burn(owner, tokenId);\n\n        delete _tokenEvent[tokenId];\n    }    \n\n    /**\n     * @dev Function to mint tokens\n     * @param eventId EventId for the new token\n     * @param tokenId The token id to mint.\n     * @param to The address that will receive the minted tokens.\n     * @return A boolean that indicates if the operation was successful.\n     */\n    function _mintToken(uint256 eventId, uint256 tokenId, address to) internal returns (bool) {\n        // TODO Verify that the token receiver ('to') do not have already a token for the event ('eventId')\n        _mint(to, tokenId);\n        _tokenEvent[tokenId] = eventId;\n        emit EventToken(eventId, tokenId);\n        return true;\n    }\n\n    /**\n     * @dev Function to convert uint to string\n     * Taken from https://github.com/oraclize/ethereum-api/blob/master/oraclizeAPI_0.5.sol\n     */\n    function _uint2str(uint _i) internal pure returns (string memory _uintAsString) {\n        if (_i == 0) {\n            return \"0\";\n        }\n        uint j = _i;\n        uint len;\n        while (j != 0) {\n            len++;\n            j /= 10;\n        }\n        bytes memory bstr = new bytes(len);\n        uint k = len - 1;\n        while (_i != 0) {\n            bstr[k--] = byte(uint8(48 + _i % 10));\n            _i /= 10;\n        }\n        return string(bstr);\n    }\n\n    /**\n     * @dev Function to concat strings\n     * Taken from https://github.com/oraclize/ethereum-api/blob/master/oraclizeAPI_0.5.sol\n     */\n    function _strConcat(string memory _a, string memory _b, string memory _c, string memory _d, string memory _e) \n        internal pure returns (string memory _concatenatedString) \n    {\n        bytes memory _ba = bytes(_a);\n        bytes memory _bb = bytes(_b);\n        bytes memory _bc = bytes(_c);\n        bytes memory _bd = bytes(_d);\n        bytes memory _be = bytes(_e);\n        string memory abcde = new string(_ba.length + _bb.length + _bc.length + _bd.length + _be.length);\n        bytes memory babcde = bytes(abcde);\n        uint k = 0;\n        uint i = 0;\n        for (i = 0; i < _ba.length; i++) {\n            babcde[k++] = _ba[i];\n        }\n        for (i = 0; i < _bb.length; i++) {\n            babcde[k++] = _bb[i];\n        }\n        for (i = 0; i < _bc.length; i++) {\n            babcde[k++] = _bc[i];\n        }\n        for (i = 0; i < _bd.length; i++) {\n            babcde[k++] = _bd[i];\n        }\n        for (i = 0; i < _be.length; i++) {\n            babcde[k++] = _be[i];\n        }\n        return string(babcde);\n    }\n\n}",
  "sourcePath": "/home/amxx/Work/subgraphs/poap/eth/contracts/Poap.sol",
  "compiler": {
    "name": "solc",
    "version": "0.5.8+commit.23d335f2.Emscripten.clang"
  },
  "schemaVersion": "3.0.16",
  "updatedAt": "2019-10-08T14:30:29.860Z",
  "devdoc": {
    "methods": {
      "balanceOf(address)": {
        "details": "Gets the balance of the specified address",
        "params": {
          "owner": "address to query the balance of"
        },
        "return": "uint256 representing the amount owned by the passed address"
      },
      "burn(uint256)": {
        "details": "Burns a specific ERC721 token.",
        "params": {
          "tokenId": "uint256 id of the ERC721 token to be burned."
        }
      },
      "getApproved(uint256)": {
        "details": "Gets the approved address for a token ID, or zero if no address set Reverts if the token ID does not exist.",
        "params": {
          "tokenId": "uint256 ID of the token to query the approval of"
        },
        "return": "address currently approved for the given token ID"
      },
      "isApprovedForAll(address,address)": {
        "details": "Tells whether an operator is approved by a given owner",
        "params": {
          "operator": "operator address which you want to query the approval of",
          "owner": "owner address which you want to query the approval of"
        },
        "return": "bool whether the given operator is approved by the given owner"
      },
      "mintEventToManyUsers(uint256,address[])": {
        "details": "Function to mint tokens",
        "params": {
          "eventId": "EventId for the new token",
          "to": "The address that will receive the minted tokens."
        },
        "return": "A boolean that indicates if the operation was successful."
      },
      "mintToken(uint256,address)": {
        "details": "Function to mint tokens",
        "params": {
          "eventId": "EventId for the new token",
          "to": "The address that will receive the minted tokens."
        },
        "return": "A boolean that indicates if the operation was successful."
      },
      "mintUserToManyEvents(uint256[],address)": {
        "details": "Function to mint tokens",
        "params": {
          "eventIds": "EventIds to assing to user",
          "to": "The address that will receive the minted tokens."
        },
        "return": "A boolean that indicates if the operation was successful."
      },
      "name()": {
        "details": "Gets the token name",
        "return": "string representing the token name"
      },
      "ownerOf(uint256)": {
        "details": "Gets the owner of the specified token ID",
        "params": {
          "tokenId": "uint256 ID of the token to query the owner of"
        },
        "return": "owner address currently marked as the owner of the given token ID"
      },
      "pause()": {
        "details": "called by the owner to pause, triggers stopped state"
      },
      "paused()": {
        "return": "true if the contract is paused, false otherwise."
      },
      "safeTransferFrom(address,address,uint256)": {
        "details": "Safely transfers the ownership of a given token ID to another address If the target address is a contract, it must implement `onERC721Received`, which is called upon a safe transfer, and return the magic value `bytes4(keccak256(\"onERC721Received(address,address,uint256,bytes)\"))`; otherwise, the transfer is reverted.     * Requires the msg sender to be the owner, approved, or operator",
        "params": {
          "from": "current owner of the token",
          "to": "address to receive the ownership of the given token ID",
          "tokenId": "uint256 ID of the token to be transferred"
        }
      },
      "safeTransferFrom(address,address,uint256,bytes)": {
        "details": "Safely transfers the ownership of a given token ID to another address If the target address is a contract, it must implement `onERC721Received`, which is called upon a safe transfer, and return the magic value `bytes4(keccak256(\"onERC721Received(address,address,uint256,bytes)\"))`; otherwise, the transfer is reverted. Requires the msg sender to be the owner, approved, or operator",
        "params": {
          "_data": "bytes data to send along with a safe transfer check",
          "from": "current owner of the token",
          "to": "address to receive the ownership of the given token ID",
          "tokenId": "uint256 ID of the token to be transferred"
        }
      },
      "supportsInterface(bytes4)": {
        "details": "implement supportsInterface(bytes4) using a lookup table"
      },
      "symbol()": {
        "details": "Gets the token symbol",
        "return": "string representing the token symbol"
      },
      "tokenByIndex(uint256)": {
        "details": "Gets the token ID at a given index of all the tokens in this contract Reverts if the index is greater or equal to the total number of tokens",
        "params": {
          "index": "uint256 representing the index to be accessed of the tokens list"
        },
        "return": "uint256 token ID at the given index of the tokens list"
      },
      "tokenDetailsOfOwnerByIndex(address,uint256)": {
        "details": "Gets the token ID at a given index of the tokens list of the requested owner",
        "params": {
          "index": "uint256 representing the index to be accessed of the requested tokens list",
          "owner": "address owning the tokens list to be accessed"
        },
        "return": "uint256 token ID at the given index of the tokens list owned by the requested address"
      },
      "tokenOfOwnerByIndex(address,uint256)": {
        "details": "Gets the token ID at a given index of the tokens list of the requested owner",
        "params": {
          "index": "uint256 representing the index to be accessed of the requested tokens list",
          "owner": "address owning the tokens list to be accessed"
        },
        "return": "uint256 token ID at the given index of the tokens list owned by the requested address"
      },
      "tokenURI(uint256)": {
        "details": "Gets the token uri",
        "return": "string representing the token uri"
      },
      "totalSupply()": {
        "details": "Gets the total amount of tokens stored by the contract",
        "return": "uint256 representing the total amount of tokens"
      },
      "unpause()": {
        "details": "called by the owner to unpause, returns to normal state"
      }
    }
  },
  "userdoc": {
    "methods": {}
  }
}